{
  "_format": "hh-sol-artifact-1",
  "contractName": "ArenaCollectibleNFT",
  "sourceName": "contracts/NFT.sol",
  "abi": [
    {
      "inputs": [],
      "stateMutability": "nonpayable",
      "type": "constructor"
    },
    {
      "inputs": [
        {
          "internalType": "address",
          "name": "sender",
          "type": "address"
        },
        {
          "internalType": "uint256",
          "name": "tokenId",
          "type": "uint256"
        },
        {
          "internalType": "address",
          "name": "owner",
          "type": "address"
        }
      ],
      "name": "ERC721IncorrectOwner",
      "type": "error"
    },
    {
      "inputs": [
        {
          "internalType": "address",
          "name": "operator",
          "type": "address"
        },
        {
          "internalType": "uint256",
          "name": "tokenId",
          "type": "uint256"
        }
      ],
      "name": "ERC721InsufficientApproval",
      "type": "error"
    },
    {
      "inputs": [
        {
          "internalType": "address",
          "name": "approver",
          "type": "address"
        }
      ],
      "name": "ERC721InvalidApprover",
      "type": "error"
    },
    {
      "inputs": [
        {
          "internalType": "address",
          "name": "operator",
          "type": "address"
        }
      ],
      "name": "ERC721InvalidOperator",
      "type": "error"
    },
    {
      "inputs": [
        {
          "internalType": "address",
          "name": "owner",
          "type": "address"
        }
      ],
      "name": "ERC721InvalidOwner",
      "type": "error"
    },
    {
      "inputs": [
        {
          "internalType": "address",
          "name": "receiver",
          "type": "address"
        }
      ],
      "name": "ERC721InvalidReceiver",
      "type": "error"
    },
    {
      "inputs": [
        {
          "internalType": "address",
          "name": "sender",
          "type": "address"
        }
      ],
      "name": "ERC721InvalidSender",
      "type": "error"
    },
    {
      "inputs": [
        {
          "internalType": "uint256",
          "name": "tokenId",
          "type": "uint256"
        }
      ],
      "name": "ERC721NonexistentToken",
      "type": "error"
    },
    {
      "inputs": [
        {
          "internalType": "address",
          "name": "owner",
          "type": "address"
        }
      ],
      "name": "OwnableInvalidOwner",
      "type": "error"
    },
    {
      "inputs": [
        {
          "internalType": "address",
          "name": "account",
          "type": "address"
        }
      ],
      "name": "OwnableUnauthorizedAccount",
      "type": "error"
    },
    {
      "anonymous": false,
      "inputs": [
        {
          "indexed": true,
          "internalType": "address",
          "name": "owner",
          "type": "address"
        },
        {
          "indexed": true,
          "internalType": "address",
          "name": "approved",
          "type": "address"
        },
        {
          "indexed": true,
          "internalType": "uint256",
          "name": "tokenId",
          "type": "uint256"
        }
      ],
      "name": "Approval",
      "type": "event"
    },
    {
      "anonymous": false,
      "inputs": [
        {
          "indexed": true,
          "internalType": "address",
          "name": "owner",
          "type": "address"
        },
        {
          "indexed": true,
          "internalType": "address",
          "name": "operator",
          "type": "address"
        },
        {
          "indexed": false,
          "internalType": "bool",
          "name": "approved",
          "type": "bool"
        }
      ],
      "name": "ApprovalForAll",
      "type": "event"
    },
    {
      "anonymous": false,
      "inputs": [
        {
          "indexed": false,
          "internalType": "uint256",
          "name": "_fromTokenId",
          "type": "uint256"
        },
        {
          "indexed": false,
          "internalType": "uint256",
          "name": "_toTokenId",
          "type": "uint256"
        }
      ],
      "name": "BatchMetadataUpdate",
      "type": "event"
    },
    {
      "anonymous": false,
      "inputs": [
        {
          "indexed": false,
          "internalType": "uint256",
          "name": "_tokenId",
          "type": "uint256"
        }
      ],
      "name": "MetadataUpdate",
      "type": "event"
    },
    {
      "anonymous": false,
      "inputs": [
        {
          "indexed": true,
          "internalType": "address",
          "name": "previousOwner",
          "type": "address"
        },
        {
          "indexed": true,
          "internalType": "address",
          "name": "newOwner",
          "type": "address"
        }
      ],
      "name": "OwnershipTransferred",
      "type": "event"
    },
    {
      "anonymous": false,
      "inputs": [
        {
          "indexed": true,
          "internalType": "address",
          "name": "from",
          "type": "address"
        },
        {
          "indexed": true,
          "internalType": "address",
          "name": "to",
          "type": "address"
        },
        {
          "indexed": true,
          "internalType": "uint256",
          "name": "tokenId",
          "type": "uint256"
        }
      ],
      "name": "Transfer",
      "type": "event"
    },
    {
      "inputs": [
        {
          "internalType": "address",
          "name": "to",
          "type": "address"
        },
        {
          "internalType": "uint256",
          "name": "tokenId",
          "type": "uint256"
        }
      ],
      "name": "approve",
      "outputs": [],
      "stateMutability": "nonpayable",
      "type": "function"
    },
    {
      "inputs": [
        {
          "internalType": "address",
          "name": "owner",
          "type": "address"
        }
      ],
      "name": "balanceOf",
      "outputs": [
        {
          "internalType": "uint256",
          "name": "",
          "type": "uint256"
        }
      ],
      "stateMutability": "view",
      "type": "function"
    },
    {
      "inputs": [
        {
          "internalType": "uint256",
          "name": "tokenId",
          "type": "uint256"
        }
      ],
      "name": "getApproved",
      "outputs": [
        {
          "internalType": "address",
          "name": "",
          "type": "address"
        }
      ],
      "stateMutability": "view",
      "type": "function"
    },
    {
      "inputs": [
        {
          "internalType": "address",
          "name": "owner",
          "type": "address"
        },
        {
          "internalType": "address",
          "name": "operator",
          "type": "address"
        }
      ],
      "name": "isApprovedForAll",
      "outputs": [
        {
          "internalType": "bool",
          "name": "",
          "type": "bool"
        }
      ],
      "stateMutability": "view",
      "type": "function"
    },
    {
      "inputs": [
        {
          "internalType": "address",
          "name": "to",
          "type": "address"
        },
        {
          "internalType": "string",
          "name": "uri",
          "type": "string"
        }
      ],
      "name": "mint",
      "outputs": [],
      "stateMutability": "payable",
      "type": "function"
    },
    {
      "inputs": [],
      "name": "name",
      "outputs": [
        {
          "internalType": "string",
          "name": "",
          "type": "string"
        }
      ],
      "stateMutability": "view",
      "type": "function"
    },
    {
      "inputs": [],
      "name": "nextTokenId",
      "outputs": [
        {
          "internalType": "uint256",
          "name": "",
          "type": "uint256"
        }
      ],
      "stateMutability": "view",
      "type": "function"
    },
    {
      "inputs": [],
      "name": "owner",
      "outputs": [
        {
          "internalType": "address",
          "name": "",
          "type": "address"
        }
      ],
      "stateMutability": "view",
      "type": "function"
    },
    {
      "inputs": [
        {
          "internalType": "uint256",
          "name": "tokenId",
          "type": "uint256"
        }
      ],
      "name": "ownerOf",
      "outputs": [
        {
          "internalType": "address",
          "name": "",
          "type": "address"
        }
      ],
      "stateMutability": "view",
      "type": "function"
    },
    {
      "inputs": [],
      "name": "renounceOwnership",
      "outputs": [],
      "stateMutability": "nonpayable",
      "type": "function"
    },
    {
      "inputs": [
        {
          "internalType": "address",
          "name": "from",
          "type": "address"
        },
        {
          "internalType": "address",
          "name": "to",
          "type": "address"
        },
        {
          "internalType": "uint256",
          "name": "tokenId",
          "type": "uint256"
        }
      ],
      "name": "safeTransferFrom",
      "outputs": [],
      "stateMutability": "nonpayable",
      "type": "function"
    },
    {
      "inputs": [
        {
          "internalType": "address",
          "name": "from",
          "type": "address"
        },
        {
          "internalType": "address",
          "name": "to",
          "type": "address"
        },
        {
          "internalType": "uint256",
          "name": "tokenId",
          "type": "uint256"
        },
        {
          "internalType": "bytes",
          "name": "data",
          "type": "bytes"
        }
      ],
      "name": "safeTransferFrom",
      "outputs": [],
      "stateMutability": "nonpayable",
      "type": "function"
    },
    {
      "inputs": [
        {
          "internalType": "address",
          "name": "operator",
          "type": "address"
        },
        {
          "internalType": "bool",
          "name": "approved",
          "type": "bool"
        }
      ],
      "name": "setApprovalForAll",
      "outputs": [],
      "stateMutability": "nonpayable",
      "type": "function"
    },
    {
      "inputs": [
        {
          "internalType": "bytes4",
          "name": "interfaceId",
          "type": "bytes4"
        }
      ],
      "name": "supportsInterface",
      "outputs": [
        {
          "internalType": "bool",
          "name": "",
          "type": "bool"
        }
      ],
      "stateMutability": "view",
      "type": "function"
    },
    {
      "inputs": [],
      "name": "symbol",
      "outputs": [
        {
          "internalType": "string",
          "name": "",
          "type": "string"
        }
      ],
      "stateMutability": "view",
      "type": "function"
    },
    {
      "inputs": [
        {
          "internalType": "uint256",
          "name": "tokenId",
          "type": "uint256"
        }
      ],
      "name": "tokenURI",
      "outputs": [
        {
          "internalType": "string",
          "name": "",
          "type": "string"
        }
      ],
      "stateMutability": "view",
      "type": "function"
    },
    {
      "inputs": [
        {
          "internalType": "address",
          "name": "from",
          "type": "address"
        },
        {
          "internalType": "address",
          "name": "to",
          "type": "address"
        },
        {
          "internalType": "uint256",
          "name": "tokenId",
          "type": "uint256"
        }
      ],
      "name": "transferFrom",
      "outputs": [],
      "stateMutability": "nonpayable",
      "type": "function"
    },
    {
      "inputs": [
        {
          "internalType": "address",
          "name": "newOwner",
          "type": "address"
        }
      ],
      "name": "transferOwnership",
      "outputs": [],
      "stateMutability": "nonpayable",
      "type": "function"
    },
    {
      "inputs": [],
      "name": "withdraw",
      "outputs": [],
      "stateMutability": "nonpayable",
      "type": "function"
    }
  ],
  "bytecode": "0x60806040523480156200001157600080fd5b50336040518060400160405280601381526020017f4172656e61436f6c6c65637469626c654e4654000000000000000000000000008152506040518060400160405280600581526020017f41434e4654000000000000000000000000000000000000000000000000000000815250816000908162000090919062000472565b508060019081620000a2919062000472565b505050600073ffffffffffffffffffffffffffffffffffffffff168173ffffffffffffffffffffffffffffffffffffffff16036200011a5760006040517f1e4fbdf70000000000000000000000000000000000000000000000000000000081526004016200011191906200059e565b60405180910390fd5b6200012b816200013260201b60201c565b50620005bb565b6000600760009054906101000a900473ffffffffffffffffffffffffffffffffffffffff16905081600760006101000a81548173ffffffffffffffffffffffffffffffffffffffff021916908373ffffffffffffffffffffffffffffffffffffffff1602179055508173ffffffffffffffffffffffffffffffffffffffff168173ffffffffffffffffffffffffffffffffffffffff167f8be0079c531659141344cd1fd0a4f28419497f9722a3daafe3b4186f6b6457e060405160405180910390a35050565b600081519050919050565b7f4e487b7100000000000000000000000000000000000000000000000000000000600052604160045260246000fd5b7f4e487b7100000000000000000000000000000000000000000000000000000000600052602260045260246000fd5b600060028204905060018216806200027a57607f821691505b60208210810362000290576200028f62000232565b5b50919050565b60008190508160005260206000209050919050565b60006020601f8301049050919050565b600082821b905092915050565b600060088302620002fa7fffffffffffffffffffffffffffffffffffffffffffffffffffffffffffffffff82620002bb565b620003068683620002bb565b95508019841693508086168417925050509392505050565b6000819050919050565b6000819050919050565b6000620003536200034d62000347846200031e565b62000328565b6200031e565b9050919050565b6000819050919050565b6200036f8362000332565b620003876200037e826200035a565b848454620002c8565b825550505050565b600090565b6200039e6200038f565b620003ab81848462000364565b505050565b5b81811015620003d357620003c760008262000394565b600181019050620003b1565b5050565b601f8211156200042257620003ec8162000296565b620003f784620002ab565b8101602085101562000407578190505b6200041f6200041685620002ab565b830182620003b0565b50505b505050565b600082821c905092915050565b6000620004476000198460080262000427565b1980831691505092915050565b600062000462838362000434565b9150826002028217905092915050565b6200047d82620001f8565b67ffffffffffffffff81111562000499576200049862000203565b5b620004a5825462000261565b620004b2828285620003d7565b600060209050601f831160018114620004ea5760008415620004d5578287015190505b620004e1858262000454565b86555062000551565b601f198416620004fa8662000296565b60005b828110156200052457848901518255600182019150602085019450602081019050620004fd565b8683101562000544578489015162000540601f89168262000434565b8355505b6001600288020188555050505b505050505050565b600073ffffffffffffffffffffffffffffffffffffffff82169050919050565b6000620005868262000559565b9050919050565b620005988162000579565b82525050565b6000602082019050620005b560008301846200058d565b92915050565b6128b080620005cb6000396000f3fe6080604052600436106101145760003560e01c8063715018a6116100a0578063b88d4fde11610064578063b88d4fde1461038b578063c87b56dd146103b4578063d0def521146103f1578063e985e9c51461040d578063f2fde38b1461044a57610114565b8063715018a6146102ca57806375794a3c146102e15780638da5cb5b1461030c57806395d89b4114610337578063a22cb4651461036257610114565b806323b872dd116100e757806323b872dd146101e75780633ccfd60b1461021057806342842e0e146102275780636352211e1461025057806370a082311461028d57610114565b806301ffc9a71461011957806306fdde0314610156578063081812fc14610181578063095ea7b3146101be575b600080fd5b34801561012557600080fd5b50610140600480360381019061013b9190611c76565b610473565b60405161014d9190611cbe565b60405180910390f35b34801561016257600080fd5b5061016b6104d4565b6040516101789190611d69565b60405180910390f35b34801561018d57600080fd5b506101a860048036038101906101a39190611dc1565b610566565b6040516101b59190611e2f565b60405180910390f35b3480156101ca57600080fd5b506101e560048036038101906101e09190611e76565b610582565b005b3480156101f357600080fd5b5061020e60048036038101906102099190611eb6565b610598565b005b34801561021c57600080fd5b5061022561069a565b005b34801561023357600080fd5b5061024e60048036038101906102499190611eb6565b6106f2565b005b34801561025c57600080fd5b5061027760048036038101906102729190611dc1565b610712565b6040516102849190611e2f565b60405180910390f35b34801561029957600080fd5b506102b460048036038101906102af9190611f09565b610724565b6040516102c19190611f45565b60405180910390f35b3480156102d657600080fd5b506102df6107de565b005b3480156102ed57600080fd5b506102f66107f2565b6040516103039190611f45565b60405180910390f35b34801561031857600080fd5b506103216107f8565b60405161032e9190611e2f565b60405180910390f35b34801561034357600080fd5b5061034c610822565b6040516103599190611d69565b60405180910390f35b34801561036e57600080fd5b5061038960048036038101906103849190611f8c565b6108b4565b005b34801561039757600080fd5b506103b260048036038101906103ad9190612101565b6108ca565b005b3480156103c057600080fd5b506103db60048036038101906103d69190611dc1565b6108ef565b6040516103e89190611d69565b60405180910390f35b61040b60048036038101906104069190612225565b610a02565b005b34801561041957600080fd5b50610434600480360381019061042f9190612281565b610a7f565b6040516104419190611cbe565b60405180910390f35b34801561045657600080fd5b50610471600480360381019061046c9190611f09565b610b13565b005b6000634906490660e01b7bffffffffffffffffffffffffffffffffffffffffffffffffffffffff1916827bffffffffffffffffffffffffffffffffffffffffffffffffffffffff191614806104cd57506104cc82610b99565b5b9050919050565b6060600080546104e3906122f0565b80601f016020809104026020016040519081016040528092919081815260200182805461050f906122f0565b801561055c5780601f106105315761010080835404028352916020019161055c565b820191906000526020600020905b81548152906001019060200180831161053f57829003601f168201915b5050505050905090565b600061057182610c7b565b5061057b82610d03565b9050919050565b610594828261058f610d40565b610d48565b5050565b600073ffffffffffffffffffffffffffffffffffffffff168273ffffffffffffffffffffffffffffffffffffffff160361060a5760006040517f64a0ae920000000000000000000000000000000000000000000000000000000081526004016106019190611e2f565b60405180910390fd5b600061061e8383610619610d40565b610d5a565b90508373ffffffffffffffffffffffffffffffffffffffff168173ffffffffffffffffffffffffffffffffffffffff1614610694578382826040517f64283d7b00000000000000000000000000000000000000000000000000000000815260040161068b93929190612321565b60405180910390fd5b50505050565b6106a2610f74565b6106aa6107f8565b73ffffffffffffffffffffffffffffffffffffffff166108fc479081150290604051600060405180830381858888f193505050501580156106ef573d6000803e3d6000fd5b50565b61070d838383604051806020016040528060008152506108ca565b505050565b600061071d82610c7b565b9050919050565b60008073ffffffffffffffffffffffffffffffffffffffff168273ffffffffffffffffffffffffffffffffffffffff16036107975760006040517f89c62b6400000000000000000000000000000000000000000000000000000000815260040161078e9190611e2f565b60405180910390fd5b600360008373ffffffffffffffffffffffffffffffffffffffff1673ffffffffffffffffffffffffffffffffffffffff168152602001908152602001600020549050919050565b6107e6610f74565b6107f06000610ffb565b565b60085481565b6000600760009054906101000a900473ffffffffffffffffffffffffffffffffffffffff16905090565b606060018054610831906122f0565b80601f016020809104026020016040519081016040528092919081815260200182805461085d906122f0565b80156108aa5780601f1061087f576101008083540402835291602001916108aa565b820191906000526020600020905b81548152906001019060200180831161088d57829003601f168201915b5050505050905090565b6108c66108bf610d40565b83836110c1565b5050565b6108d5848484610598565b6108e96108e0610d40565b85858585611230565b50505050565b60606108fa82610c7b565b50600060066000848152602001908152602001600020805461091b906122f0565b80601f0160208091040260200160405190810160405280929190818152602001828054610947906122f0565b80156109945780601f1061096957610100808354040283529160200191610994565b820191906000526020600020905b81548152906001019060200180831161097757829003601f168201915b5050505050905060006109a56113e1565b905060008151036109ba5781925050506109fd565b6000825111156109ef5780826040516020016109d7929190612394565b604051602081830303815290604052925050506109fd565b6109f8846113f8565b925050505b919050565b66038d7ea4c680003414610a4b576040517f08c379a0000000000000000000000000000000000000000000000000000000008152600401610a429061242a565b60405180910390fd5b610a5782600854611461565b610a636008548261147f565b60086000815480929190610a7690612479565b91905055505050565b6000600560008473ffffffffffffffffffffffffffffffffffffffff1673ffffffffffffffffffffffffffffffffffffffff16815260200190815260200160002060008373ffffffffffffffffffffffffffffffffffffffff1673ffffffffffffffffffffffffffffffffffffffff16815260200190815260200160002060009054906101000a900460ff16905092915050565b610b1b610f74565b600073ffffffffffffffffffffffffffffffffffffffff168173ffffffffffffffffffffffffffffffffffffffff1603610b8d5760006040517f1e4fbdf7000000000000000000000000000000000000000000000000000000008152600401610b849190611e2f565b60405180910390fd5b610b9681610ffb565b50565b60007f80ac58cd000000000000000000000000000000000000000000000000000000007bffffffffffffffffffffffffffffffffffffffffffffffffffffffff1916827bffffffffffffffffffffffffffffffffffffffffffffffffffffffff19161480610c6457507f5b5e139f000000000000000000000000000000000000000000000000000000007bffffffffffffffffffffffffffffffffffffffffffffffffffffffff1916827bffffffffffffffffffffffffffffffffffffffffffffffffffffffff1916145b80610c745750610c73826114db565b5b9050919050565b600080610c8783611545565b9050600073ffffffffffffffffffffffffffffffffffffffff168173ffffffffffffffffffffffffffffffffffffffff1603610cfa57826040517f7e273289000000000000000000000000000000000000000000000000000000008152600401610cf19190611f45565b60405180910390fd5b80915050919050565b60006004600083815260200190815260200160002060009054906101000a900473ffffffffffffffffffffffffffffffffffffffff169050919050565b600033905090565b610d558383836001611582565b505050565b600080610d6684611545565b9050600073ffffffffffffffffffffffffffffffffffffffff168373ffffffffffffffffffffffffffffffffffffffff1614610da857610da7818486611747565b5b600073ffffffffffffffffffffffffffffffffffffffff168173ffffffffffffffffffffffffffffffffffffffff1614610e3957610dea600085600080611582565b6001600360008373ffffffffffffffffffffffffffffffffffffffff1673ffffffffffffffffffffffffffffffffffffffff168152602001908152602001600020600082825403925050819055505b600073ffffffffffffffffffffffffffffffffffffffff168573ffffffffffffffffffffffffffffffffffffffff1614610ebc576001600360008773ffffffffffffffffffffffffffffffffffffffff1673ffffffffffffffffffffffffffffffffffffffff168152602001908152602001600020600082825401925050819055505b846002600086815260200190815260200160002060006101000a81548173ffffffffffffffffffffffffffffffffffffffff021916908373ffffffffffffffffffffffffffffffffffffffff160217905550838573ffffffffffffffffffffffffffffffffffffffff168273ffffffffffffffffffffffffffffffffffffffff167fddf252ad1be2c89b69c2b068fc378daa952ba7f163c4a11628f55a4df523b3ef60405160405180910390a4809150509392505050565b610f7c610d40565b73ffffffffffffffffffffffffffffffffffffffff16610f9a6107f8565b73ffffffffffffffffffffffffffffffffffffffff1614610ff957610fbd610d40565b6040517f118cdaa7000000000000000000000000000000000000000000000000000000008152600401610ff09190611e2f565b60405180910390fd5b565b6000600760009054906101000a900473ffffffffffffffffffffffffffffffffffffffff16905081600760006101000a81548173ffffffffffffffffffffffffffffffffffffffff021916908373ffffffffffffffffffffffffffffffffffffffff1602179055508173ffffffffffffffffffffffffffffffffffffffff168173ffffffffffffffffffffffffffffffffffffffff167f8be0079c531659141344cd1fd0a4f28419497f9722a3daafe3b4186f6b6457e060405160405180910390a35050565b600073ffffffffffffffffffffffffffffffffffffffff168273ffffffffffffffffffffffffffffffffffffffff160361113257816040517f5b08ba180000000000000000000000000000000000000000000000000000000081526004016111299190611e2f565b60405180910390fd5b80600560008573ffffffffffffffffffffffffffffffffffffffff1673ffffffffffffffffffffffffffffffffffffffff16815260200190815260200160002060008473ffffffffffffffffffffffffffffffffffffffff1673ffffffffffffffffffffffffffffffffffffffff16815260200190815260200160002060006101000a81548160ff0219169083151502179055508173ffffffffffffffffffffffffffffffffffffffff168373ffffffffffffffffffffffffffffffffffffffff167f17307eab39ab6107e8899845ad3d59bd9653f200f220920489ca2b5937696c31836040516112239190611cbe565b60405180910390a3505050565b60008373ffffffffffffffffffffffffffffffffffffffff163b11156113da578273ffffffffffffffffffffffffffffffffffffffff1663150b7a02868685856040518563ffffffff1660e01b815260040161128f9493929190612516565b6020604051808303816000875af19250505080156112cb57506040513d601f19601f820116820180604052508101906112c89190612577565b60015b61134f573d80600081146112fb576040519150601f19603f3d011682016040523d82523d6000602084013e611300565b606091505b50600081510361134757836040517f64a0ae9200000000000000000000000000000000000000000000000000000000815260040161133e9190611e2f565b60405180910390fd5b805181602001fd5b63150b7a0260e01b7bffffffffffffffffffffffffffffffffffffffffffffffffffffffff1916817bffffffffffffffffffffffffffffffffffffffffffffffffffffffff1916146113d857836040517f64a0ae920000000000000000000000000000000000000000000000000000000081526004016113cf9190611e2f565b60405180910390fd5b505b5050505050565b606060405180602001604052806000815250905090565b606061140382610c7b565b50600061140e6113e1565b9050600081511161142e5760405180602001604052806000815250611459565b806114388461180b565b604051602001611449929190612394565b6040516020818303038152906040525b915050919050565b61147b8282604051806020016040528060008152506118d9565b5050565b8060066000848152602001908152602001600020908161149f9190612750565b507ff8e1a15aba9398e019f0b49df1a4fde98ee17ae345cb5f6b5e2c27f5033e8ce7826040516114cf9190611f45565b60405180910390a15050565b60007f01ffc9a7000000000000000000000000000000000000000000000000000000007bffffffffffffffffffffffffffffffffffffffffffffffffffffffff1916827bffffffffffffffffffffffffffffffffffffffffffffffffffffffff1916149050919050565b60006002600083815260200190815260200160002060009054906101000a900473ffffffffffffffffffffffffffffffffffffffff169050919050565b80806115bb5750600073ffffffffffffffffffffffffffffffffffffffff168273ffffffffffffffffffffffffffffffffffffffff1614155b156116ef5760006115cb84610c7b565b9050600073ffffffffffffffffffffffffffffffffffffffff168373ffffffffffffffffffffffffffffffffffffffff161415801561163657508273ffffffffffffffffffffffffffffffffffffffff168173ffffffffffffffffffffffffffffffffffffffff1614155b801561164957506116478184610a7f565b155b1561168b57826040517fa9fbf51f0000000000000000000000000000000000000000000000000000000081526004016116829190611e2f565b60405180910390fd5b81156116ed57838573ffffffffffffffffffffffffffffffffffffffff168273ffffffffffffffffffffffffffffffffffffffff167f8c5be1e5ebec7d5bd14f71427d1e84f3dd0314c0f7b2291e5b200ac8c7c3b92560405160405180910390a45b505b836004600085815260200190815260200160002060006101000a81548173ffffffffffffffffffffffffffffffffffffffff021916908373ffffffffffffffffffffffffffffffffffffffff16021790555050505050565b6117528383836118fd565b61180657600073ffffffffffffffffffffffffffffffffffffffff168373ffffffffffffffffffffffffffffffffffffffff16036117c757806040517f7e2732890000000000000000000000000000000000000000000000000000000081526004016117be9190611f45565b60405180910390fd5b81816040517f177e802f0000000000000000000000000000000000000000000000000000000081526004016117fd929190612822565b60405180910390fd5b505050565b60606000600161181a846119be565b01905060008167ffffffffffffffff81111561183957611838611fd6565b5b6040519080825280601f01601f19166020018201604052801561186b5781602001600182028036833780820191505090505b509050600082602001820190505b6001156118ce578080600190039150507f3031323334353637383961626364656600000000000000000000000000000000600a86061a8153600a85816118c2576118c161284b565b5b04945060008503611879575b819350505050919050565b6118e38383611b11565b6118f86118ee610d40565b6000858585611230565b505050565b60008073ffffffffffffffffffffffffffffffffffffffff168373ffffffffffffffffffffffffffffffffffffffff16141580156119b557508273ffffffffffffffffffffffffffffffffffffffff168473ffffffffffffffffffffffffffffffffffffffff16148061197657506119758484610a7f565b5b806119b457508273ffffffffffffffffffffffffffffffffffffffff1661199c83610d03565b73ffffffffffffffffffffffffffffffffffffffff16145b5b90509392505050565b600080600090507a184f03e93ff9f4daa797ed6e38ed64bf6a1f0100000000000000008310611a1c577a184f03e93ff9f4daa797ed6e38ed64bf6a1f0100000000000000008381611a1257611a1161284b565b5b0492506040810190505b6d04ee2d6d415b85acef81000000008310611a59576d04ee2d6d415b85acef81000000008381611a4f57611a4e61284b565b5b0492506020810190505b662386f26fc100008310611a8857662386f26fc100008381611a7e57611a7d61284b565b5b0492506010810190505b6305f5e1008310611ab1576305f5e1008381611aa757611aa661284b565b5b0492506008810190505b6127108310611ad6576127108381611acc57611acb61284b565b5b0492506004810190505b60648310611af95760648381611aef57611aee61284b565b5b0492506002810190505b600a8310611b08576001810190505b80915050919050565b600073ffffffffffffffffffffffffffffffffffffffff168273ffffffffffffffffffffffffffffffffffffffff1603611b835760006040517f64a0ae92000000000000000000000000000000000000000000000000000000008152600401611b7a9190611e2f565b60405180910390fd5b6000611b9183836000610d5a565b9050600073ffffffffffffffffffffffffffffffffffffffff168173ffffffffffffffffffffffffffffffffffffffff1614611c055760006040517f73c6ac6e000000000000000000000000000000000000000000000000000000008152600401611bfc9190611e2f565b60405180910390fd5b505050565b6000604051905090565b600080fd5b600080fd5b60007fffffffff0000000000000000000000000000000000000000000000000000000082169050919050565b611c5381611c1e565b8114611c5e57600080fd5b50565b600081359050611c7081611c4a565b92915050565b600060208284031215611c8c57611c8b611c14565b5b6000611c9a84828501611c61565b91505092915050565b60008115159050919050565b611cb881611ca3565b82525050565b6000602082019050611cd36000830184611caf565b92915050565b600081519050919050565b600082825260208201905092915050565b60005b83811015611d13578082015181840152602081019050611cf8565b60008484015250505050565b6000601f19601f8301169050919050565b6000611d3b82611cd9565b611d458185611ce4565b9350611d55818560208601611cf5565b611d5e81611d1f565b840191505092915050565b60006020820190508181036000830152611d838184611d30565b905092915050565b6000819050919050565b611d9e81611d8b565b8114611da957600080fd5b50565b600081359050611dbb81611d95565b92915050565b600060208284031215611dd757611dd6611c14565b5b6000611de584828501611dac565b91505092915050565b600073ffffffffffffffffffffffffffffffffffffffff82169050919050565b6000611e1982611dee565b9050919050565b611e2981611e0e565b82525050565b6000602082019050611e446000830184611e20565b92915050565b611e5381611e0e565b8114611e5e57600080fd5b50565b600081359050611e7081611e4a565b92915050565b60008060408385031215611e8d57611e8c611c14565b5b6000611e9b85828601611e61565b9250506020611eac85828601611dac565b9150509250929050565b600080600060608486031215611ecf57611ece611c14565b5b6000611edd86828701611e61565b9350506020611eee86828701611e61565b9250506040611eff86828701611dac565b9150509250925092565b600060208284031215611f1f57611f1e611c14565b5b6000611f2d84828501611e61565b91505092915050565b611f3f81611d8b565b82525050565b6000602082019050611f5a6000830184611f36565b92915050565b611f6981611ca3565b8114611f7457600080fd5b50565b600081359050611f8681611f60565b92915050565b60008060408385031215611fa357611fa2611c14565b5b6000611fb185828601611e61565b9250506020611fc285828601611f77565b9150509250929050565b600080fd5b600080fd5b7f4e487b7100000000000000000000000000000000000000000000000000000000600052604160045260246000fd5b61200e82611d1f565b810181811067ffffffffffffffff8211171561202d5761202c611fd6565b5b80604052505050565b6000612040611c0a565b905061204c8282612005565b919050565b600067ffffffffffffffff82111561206c5761206b611fd6565b5b61207582611d1f565b9050602081019050919050565b82818337600083830152505050565b60006120a461209f84612051565b612036565b9050828152602081018484840111156120c0576120bf611fd1565b5b6120cb848285612082565b509392505050565b600082601f8301126120e8576120e7611fcc565b5b81356120f8848260208601612091565b91505092915050565b6000806000806080858703121561211b5761211a611c14565b5b600061212987828801611e61565b945050602061213a87828801611e61565b935050604061214b87828801611dac565b925050606085013567ffffffffffffffff81111561216c5761216b611c19565b5b612178878288016120d3565b91505092959194509250565b600067ffffffffffffffff82111561219f5761219e611fd6565b5b6121a882611d1f565b9050602081019050919050565b60006121c86121c384612184565b612036565b9050828152602081018484840111156121e4576121e3611fd1565b5b6121ef848285612082565b509392505050565b600082601f83011261220c5761220b611fcc565b5b813561221c8482602086016121b5565b91505092915050565b6000806040838503121561223c5761223b611c14565b5b600061224a85828601611e61565b925050602083013567ffffffffffffffff81111561226b5761226a611c19565b5b612277858286016121f7565b9150509250929050565b6000806040838503121561229857612297611c14565b5b60006122a685828601611e61565b92505060206122b785828601611e61565b9150509250929050565b7f4e487b7100000000000000000000000000000000000000000000000000000000600052602260045260246000fd5b6000600282049050600182168061230857607f821691505b60208210810361231b5761231a6122c1565b5b50919050565b60006060820190506123366000830186611e20565b6123436020830185611f36565b6123506040830184611e20565b949350505050565b600081905092915050565b600061236e82611cd9565b6123788185612358565b9350612388818560208601611cf5565b80840191505092915050565b60006123a08285612363565b91506123ac8284612363565b91508190509392505050565b7f4d696e74696e672072657175697265732065786163746c7920302e303031204360008201527f485a000000000000000000000000000000000000000000000000000000000000602082015250565b6000612414602283611ce4565b915061241f826123b8565b604082019050919050565b6000602082019050818103600083015261244381612407565b9050919050565b7f4e487b7100000000000000000000000000000000000000000000000000000000600052601160045260246000fd5b600061248482611d8b565b91507fffffffffffffffffffffffffffffffffffffffffffffffffffffffffffffffff82036124b6576124b561244a565b5b600182019050919050565b600081519050919050565b600082825260208201905092915050565b60006124e8826124c1565b6124f281856124cc565b9350612502818560208601611cf5565b61250b81611d1f565b840191505092915050565b600060808201905061252b6000830187611e20565b6125386020830186611e20565b6125456040830185611f36565b818103606083015261255781846124dd565b905095945050505050565b60008151905061257181611c4a565b92915050565b60006020828403121561258d5761258c611c14565b5b600061259b84828501612562565b91505092915050565b60008190508160005260206000209050919050565b60006020601f8301049050919050565b600082821b905092915050565b6000600883026126067fffffffffffffffffffffffffffffffffffffffffffffffffffffffffffffffff826125c9565b61261086836125c9565b95508019841693508086168417925050509392505050565b6000819050919050565b600061264d61264861264384611d8b565b612628565b611d8b565b9050919050565b6000819050919050565b61266783612632565b61267b61267382612654565b8484546125d6565b825550505050565b600090565b612690612683565b61269b81848461265e565b505050565b5b818110156126bf576126b4600082612688565b6001810190506126a1565b5050565b601f821115612704576126d5816125a4565b6126de846125b9565b810160208510156126ed578190505b6127016126f9856125b9565b8301826126a0565b50505b505050565b600082821c905092915050565b600061272760001984600802612709565b1980831691505092915050565b60006127408383612716565b9150826002028217905092915050565b61275982611cd9565b67ffffffffffffffff81111561277257612771611fd6565b5b61277c82546122f0565b6127878282856126c3565b600060209050601f8311600181146127ba57600084156127a8578287015190505b6127b28582612734565b86555061281a565b601f1984166127c8866125a4565b60005b828110156127f0578489015182556001820191506020850194506020810190506127cb565b8683101561280d5784890151612809601f891682612716565b8355505b6001600288020188555050505b505050505050565b60006040820190506128376000830185611e20565b6128446020830184611f36565b9392505050565b7f4e487b7100000000000000000000000000000000000000000000000000000000600052601260045260246000fdfea2646970667358221220087811f3dff677c0856ed21f3c6d9a15aca38c826e548027d54ab4cc59e7777d64736f6c63430008180033",
  "linkReferences": {},
  "deployedLinkReferences": {}
}