{
  "_format": "hh-sol-artifact-1",
  "contractName": "ArenaCollectibleNFT",
  "sourceName": "contracts/NFT.sol",
  "abi": [
    {
      "inputs": [],
      "stateMutability": "nonpayable",
      "type": "constructor"
    },
    {
      "inputs": [
        {
          "internalType": "address",
          "name": "sender",
          "type": "address"
        },
        {
          "internalType": "uint256",
          "name": "tokenId",
          "type": "uint256"
        },
        {
          "internalType": "address",
          "name": "owner",
          "type": "address"
        }
      ],
      "name": "ERC721IncorrectOwner",
      "type": "error"
    },
    {
      "inputs": [
        {
          "internalType": "address",
          "name": "operator",
          "type": "address"
        },
        {
          "internalType": "uint256",
          "name": "tokenId",
          "type": "uint256"
        }
      ],
      "name": "ERC721InsufficientApproval",
      "type": "error"
    },
    {
      "inputs": [
        {
          "internalType": "address",
          "name": "approver",
          "type": "address"
        }
      ],
      "name": "ERC721InvalidApprover",
      "type": "error"
    },
    {
      "inputs": [
        {
          "internalType": "address",
          "name": "operator",
          "type": "address"
        }
      ],
      "name": "ERC721InvalidOperator",
      "type": "error"
    },
    {
      "inputs": [
        {
          "internalType": "address",
          "name": "owner",
          "type": "address"
        }
      ],
      "name": "ERC721InvalidOwner",
      "type": "error"
    },
    {
      "inputs": [
        {
          "internalType": "address",
          "name": "receiver",
          "type": "address"
        }
      ],
      "name": "ERC721InvalidReceiver",
      "type": "error"
    },
    {
      "inputs": [
        {
          "internalType": "address",
          "name": "sender",
          "type": "address"
        }
      ],
      "name": "ERC721InvalidSender",
      "type": "error"
    },
    {
      "inputs": [
        {
          "internalType": "uint256",
          "name": "tokenId",
          "type": "uint256"
        }
      ],
      "name": "ERC721NonexistentToken",
      "type": "error"
    },
    {
      "inputs": [
        {
          "internalType": "address",
          "name": "owner",
          "type": "address"
        }
      ],
      "name": "OwnableInvalidOwner",
      "type": "error"
    },
    {
      "inputs": [
        {
          "internalType": "address",
          "name": "account",
          "type": "address"
        }
      ],
      "name": "OwnableUnauthorizedAccount",
      "type": "error"
    },
    {
      "anonymous": false,
      "inputs": [
        {
          "indexed": true,
          "internalType": "address",
          "name": "owner",
          "type": "address"
        },
        {
          "indexed": true,
          "internalType": "address",
          "name": "approved",
          "type": "address"
        },
        {
          "indexed": true,
          "internalType": "uint256",
          "name": "tokenId",
          "type": "uint256"
        }
      ],
      "name": "Approval",
      "type": "event"
    },
    {
      "anonymous": false,
      "inputs": [
        {
          "indexed": true,
          "internalType": "address",
          "name": "owner",
          "type": "address"
        },
        {
          "indexed": true,
          "internalType": "address",
          "name": "operator",
          "type": "address"
        },
        {
          "indexed": false,
          "internalType": "bool",
          "name": "approved",
          "type": "bool"
        }
      ],
      "name": "ApprovalForAll",
      "type": "event"
    },
    {
      "anonymous": false,
      "inputs": [
        {
          "indexed": false,
          "internalType": "uint256",
          "name": "_fromTokenId",
          "type": "uint256"
        },
        {
          "indexed": false,
          "internalType": "uint256",
          "name": "_toTokenId",
          "type": "uint256"
        }
      ],
      "name": "BatchMetadataUpdate",
      "type": "event"
    },
    {
      "anonymous": false,
      "inputs": [
        {
          "indexed": false,
          "internalType": "uint256",
          "name": "_tokenId",
          "type": "uint256"
        }
      ],
      "name": "MetadataUpdate",
      "type": "event"
    },
    {
      "anonymous": false,
      "inputs": [
        {
          "indexed": true,
          "internalType": "address",
          "name": "previousOwner",
          "type": "address"
        },
        {
          "indexed": true,
          "internalType": "address",
          "name": "newOwner",
          "type": "address"
        }
      ],
      "name": "OwnershipTransferred",
      "type": "event"
    },
    {
      "anonymous": false,
      "inputs": [
        {
          "indexed": true,
          "internalType": "address",
          "name": "from",
          "type": "address"
        },
        {
          "indexed": true,
          "internalType": "address",
          "name": "to",
          "type": "address"
        },
        {
          "indexed": true,
          "internalType": "uint256",
          "name": "tokenId",
          "type": "uint256"
        }
      ],
      "name": "Transfer",
      "type": "event"
    },
    {
      "inputs": [
        {
          "internalType": "address",
          "name": "to",
          "type": "address"
        },
        {
          "internalType": "uint256",
          "name": "tokenId",
          "type": "uint256"
        }
      ],
      "name": "approve",
      "outputs": [],
      "stateMutability": "nonpayable",
      "type": "function"
    },
    {
      "inputs": [
        {
          "internalType": "address",
          "name": "owner",
          "type": "address"
        }
      ],
      "name": "balanceOf",
      "outputs": [
        {
          "internalType": "uint256",
          "name": "",
          "type": "uint256"
        }
      ],
      "stateMutability": "view",
      "type": "function"
    },
    {
      "inputs": [
        {
          "internalType": "uint256",
          "name": "tokenId",
          "type": "uint256"
        }
      ],
      "name": "getApproved",
      "outputs": [
        {
          "internalType": "address",
          "name": "",
          "type": "address"
        }
      ],
      "stateMutability": "view",
      "type": "function"
    },
    {
      "inputs": [
        {
          "internalType": "address",
          "name": "owner",
          "type": "address"
        },
        {
          "internalType": "address",
          "name": "operator",
          "type": "address"
        }
      ],
      "name": "isApprovedForAll",
      "outputs": [
        {
          "internalType": "bool",
          "name": "",
          "type": "bool"
        }
      ],
      "stateMutability": "view",
      "type": "function"
    },
    {
      "inputs": [
        {
          "internalType": "address",
          "name": "to",
          "type": "address"
        },
        {
          "internalType": "string",
          "name": "uri",
          "type": "string"
        }
      ],
      "name": "mint",
      "outputs": [],
      "stateMutability": "payable",
      "type": "function"
    },
    {
      "inputs": [],
      "name": "name",
      "outputs": [
        {
          "internalType": "string",
          "name": "",
          "type": "string"
        }
      ],
      "stateMutability": "view",
      "type": "function"
    },
    {
      "inputs": [],
      "name": "nextTokenId",
      "outputs": [
        {
          "internalType": "uint256",
          "name": "",
          "type": "uint256"
        }
      ],
      "stateMutability": "view",
      "type": "function"
    },
    {
      "inputs": [],
      "name": "owner",
      "outputs": [
        {
          "internalType": "address",
          "name": "",
          "type": "address"
        }
      ],
      "stateMutability": "view",
      "type": "function"
    },
    {
      "inputs": [
        {
          "internalType": "uint256",
          "name": "tokenId",
          "type": "uint256"
        }
      ],
      "name": "ownerOf",
      "outputs": [
        {
          "internalType": "address",
          "name": "",
          "type": "address"
        }
      ],
      "stateMutability": "view",
      "type": "function"
    },
    {
      "inputs": [],
      "name": "renounceOwnership",
      "outputs": [],
      "stateMutability": "nonpayable",
      "type": "function"
    },
    {
      "inputs": [
        {
          "internalType": "address",
          "name": "from",
          "type": "address"
        },
        {
          "internalType": "address",
          "name": "to",
          "type": "address"
        },
        {
          "internalType": "uint256",
          "name": "tokenId",
          "type": "uint256"
        }
      ],
      "name": "safeTransferFrom",
      "outputs": [],
      "stateMutability": "nonpayable",
      "type": "function"
    },
    {
      "inputs": [
        {
          "internalType": "address",
          "name": "from",
          "type": "address"
        },
        {
          "internalType": "address",
          "name": "to",
          "type": "address"
        },
        {
          "internalType": "uint256",
          "name": "tokenId",
          "type": "uint256"
        },
        {
          "internalType": "bytes",
          "name": "data",
          "type": "bytes"
        }
      ],
      "name": "safeTransferFrom",
      "outputs": [],
      "stateMutability": "nonpayable",
      "type": "function"
    },
    {
      "inputs": [
        {
          "internalType": "address",
          "name": "operator",
          "type": "address"
        },
        {
          "internalType": "bool",
          "name": "approved",
          "type": "bool"
        }
      ],
      "name": "setApprovalForAll",
      "outputs": [],
      "stateMutability": "nonpayable",
      "type": "function"
    },
    {
      "inputs": [
        {
          "internalType": "bytes4",
          "name": "interfaceId",
          "type": "bytes4"
        }
      ],
      "name": "supportsInterface",
      "outputs": [
        {
          "internalType": "bool",
          "name": "",
          "type": "bool"
        }
      ],
      "stateMutability": "view",
      "type": "function"
    },
    {
      "inputs": [],
      "name": "symbol",
      "outputs": [
        {
          "internalType": "string",
          "name": "",
          "type": "string"
        }
      ],
      "stateMutability": "view",
      "type": "function"
    },
    {
      "inputs": [
        {
          "internalType": "uint256",
          "name": "tokenId",
          "type": "uint256"
        }
      ],
      "name": "tokenURI",
      "outputs": [
        {
          "internalType": "string",
          "name": "",
          "type": "string"
        }
      ],
      "stateMutability": "view",
      "type": "function"
    },
    {
      "inputs": [
        {
          "internalType": "address",
          "name": "from",
          "type": "address"
        },
        {
          "internalType": "address",
          "name": "to",
          "type": "address"
        },
        {
          "internalType": "uint256",
          "name": "tokenId",
          "type": "uint256"
        }
      ],
      "name": "transferFrom",
      "outputs": [],
      "stateMutability": "nonpayable",
      "type": "function"
    },
    {
      "inputs": [
        {
          "internalType": "address",
          "name": "newOwner",
          "type": "address"
        }
      ],
      "name": "transferOwnership",
      "outputs": [],
      "stateMutability": "nonpayable",
      "type": "function"
    },
    {
      "inputs": [],
      "name": "withdraw",
      "outputs": [],
      "stateMutability": "nonpayable",
      "type": "function"
    }
  ],
  "bytecode": "0x60806040523480156200001157600080fd5b50336040518060400160405280601381526020017f4172656e61436f6c6c65637469626c654e4654000000000000000000000000008152506040518060400160405280600581526020017f41434e4654000000000000000000000000000000000000000000000000000000815250816000908162000090919062000472565b508060019081620000a2919062000472565b505050600073ffffffffffffffffffffffffffffffffffffffff168173ffffffffffffffffffffffffffffffffffffffff16036200011a5760006040517f1e4fbdf70000000000000000000000000000000000000000000000000000000081526004016200011191906200059e565b60405180910390fd5b6200012b816200013260201b60201c565b50620005bb565b6000600760009054906101000a900473ffffffffffffffffffffffffffffffffffffffff16905081600760006101000a81548173ffffffffffffffffffffffffffffffffffffffff021916908373ffffffffffffffffffffffffffffffffffffffff1602179055508173ffffffffffffffffffffffffffffffffffffffff168173ffffffffffffffffffffffffffffffffffffffff167f8be0079c531659141344cd1fd0a4f28419497f9722a3daafe3b4186f6b6457e060405160405180910390a35050565b600081519050919050565b7f4e487b7100000000000000000000000000000000000000000000000000000000600052604160045260246000fd5b7f4e487b7100000000000000000000000000000000000000000000000000000000600052602260045260246000fd5b600060028204905060018216806200027a57607f821691505b60208210810362000290576200028f62000232565b5b50919050565b60008190508160005260206000209050919050565b60006020601f8301049050919050565b600082821b905092915050565b600060088302620002fa7fffffffffffffffffffffffffffffffffffffffffffffffffffffffffffffffff82620002bb565b620003068683620002bb565b95508019841693508086168417925050509392505050565b6000819050919050565b6000819050919050565b6000620003536200034d62000347846200031e565b62000328565b6200031e565b9050919050565b6000819050919050565b6200036f8362000332565b620003876200037e826200035a565b848454620002c8565b825550505050565b600090565b6200039e6200038f565b620003ab81848462000364565b505050565b5b81811015620003d357620003c760008262000394565b600181019050620003b1565b5050565b601f8211156200042257620003ec8162000296565b620003f784620002ab565b8101602085101562000407578190505b6200041f6200041685620002ab565b830182620003b0565b50505b505050565b600082821c905092915050565b6000620004476000198460080262000427565b1980831691505092915050565b600062000462838362000434565b9150826002028217905092915050565b6200047d82620001f8565b67ffffffffffffffff81111562000499576200049862000203565b5b620004a5825462000261565b620004b2828285620003d7565b600060209050601f831160018114620004ea5760008415620004d5578287015190505b620004e1858262000454565b86555062000551565b601f198416620004fa8662000296565b60005b828110156200052457848901518255600182019150602085019450602081019050620004fd565b8683101562000544578489015162000540601f89168262000434565b8355505b6001600288020188555050505b505050505050565b600073ffffffffffffffffffffffffffffffffffffffff82169050919050565b6000620005868262000559565b9050919050565b620005988162000579565b82525050565b6000602082019050620005b560008301846200058d565b92915050565b61288b80620005cb6000396000f3fe6080604052600436106101145760003560e01c8063715018a6116100a0578063b88d4fde11610064578063b88d4fde1461038b578063c87b56dd146103b4578063d0def521146103f1578063e985e9c51461040d578063f2fde38b1461044a57610114565b8063715018a6146102ca57806375794a3c146102e15780638da5cb5b1461030c57806395d89b4114610337578063a22cb4651461036257610114565b806323b872dd116100e757806323b872dd146101e75780633ccfd60b1461021057806342842e0e146102275780636352211e1461025057806370a082311461028d57610114565b806301ffc9a71461011957806306fdde0314610156578063081812fc14610181578063095ea7b3146101be575b600080fd5b34801561012557600080fd5b50610140600480360381019061013b9190611c77565b610473565b60405161014d9190611cbf565b60405180910390f35b34801561016257600080fd5b5061016b6104d4565b6040516101789190611d6a565b60405180910390f35b34801561018d57600080fd5b506101a860048036038101906101a39190611dc2565b610566565b6040516101b59190611e30565b60405180910390f35b3480156101ca57600080fd5b506101e560048036038101906101e09190611e77565b610582565b005b3480156101f357600080fd5b5061020e60048036038101906102099190611eb7565b610598565b005b34801561021c57600080fd5b5061022561069a565b005b34801561023357600080fd5b5061024e60048036038101906102499190611eb7565b6106f2565b005b34801561025c57600080fd5b5061027760048036038101906102729190611dc2565b610712565b6040516102849190611e30565b60405180910390f35b34801561029957600080fd5b506102b460048036038101906102af9190611f0a565b610724565b6040516102c19190611f46565b60405180910390f35b3480156102d657600080fd5b506102df6107de565b005b3480156102ed57600080fd5b506102f66107f2565b6040516103039190611f46565b60405180910390f35b34801561031857600080fd5b506103216107f8565b60405161032e9190611e30565b60405180910390f35b34801561034357600080fd5b5061034c610822565b6040516103599190611d6a565b60405180910390f35b34801561036e57600080fd5b5061038960048036038101906103849190611f8d565b6108b4565b005b34801561039757600080fd5b506103b260048036038101906103ad9190612102565b6108ca565b005b3480156103c057600080fd5b506103db60048036038101906103d69190611dc2565b6108ef565b6040516103e89190611d6a565b60405180910390f35b61040b60048036038101906104069190612226565b610a02565b005b34801561041957600080fd5b50610434600480360381019061042f9190612282565b610a80565b6040516104419190611cbf565b60405180910390f35b34801561045657600080fd5b50610471600480360381019061046c9190611f0a565b610b14565b005b6000634906490660e01b7bffffffffffffffffffffffffffffffffffffffffffffffffffffffff1916827bffffffffffffffffffffffffffffffffffffffffffffffffffffffff191614806104cd57506104cc82610b9a565b5b9050919050565b6060600080546104e3906122f1565b80601f016020809104026020016040519081016040528092919081815260200182805461050f906122f1565b801561055c5780601f106105315761010080835404028352916020019161055c565b820191906000526020600020905b81548152906001019060200180831161053f57829003601f168201915b5050505050905090565b600061057182610c7c565b5061057b82610d04565b9050919050565b610594828261058f610d41565b610d49565b5050565b600073ffffffffffffffffffffffffffffffffffffffff168273ffffffffffffffffffffffffffffffffffffffff160361060a5760006040517f64a0ae920000000000000000000000000000000000000000000000000000000081526004016106019190611e30565b60405180910390fd5b600061061e8383610619610d41565b610d5b565b90508373ffffffffffffffffffffffffffffffffffffffff168173ffffffffffffffffffffffffffffffffffffffff1614610694578382826040517f64283d7b00000000000000000000000000000000000000000000000000000000815260040161068b93929190612322565b60405180910390fd5b50505050565b6106a2610f75565b6106aa6107f8565b73ffffffffffffffffffffffffffffffffffffffff166108fc479081150290604051600060405180830381858888f193505050501580156106ef573d6000803e3d6000fd5b50565b61070d838383604051806020016040528060008152506108ca565b505050565b600061071d82610c7c565b9050919050565b60008073ffffffffffffffffffffffffffffffffffffffff168273ffffffffffffffffffffffffffffffffffffffff16036107975760006040517f89c62b6400000000000000000000000000000000000000000000000000000000815260040161078e9190611e30565b60405180910390fd5b600360008373ffffffffffffffffffffffffffffffffffffffff1673ffffffffffffffffffffffffffffffffffffffff168152602001908152602001600020549050919050565b6107e6610f75565b6107f06000610ffc565b565b60085481565b6000600760009054906101000a900473ffffffffffffffffffffffffffffffffffffffff16905090565b606060018054610831906122f1565b80601f016020809104026020016040519081016040528092919081815260200182805461085d906122f1565b80156108aa5780601f1061087f576101008083540402835291602001916108aa565b820191906000526020600020905b81548152906001019060200180831161088d57829003601f168201915b5050505050905090565b6108c66108bf610d41565b83836110c2565b5050565b6108d5848484610598565b6108e96108e0610d41565b85858585611231565b50505050565b60606108fa82610c7c565b50600060066000848152602001908152602001600020805461091b906122f1565b80601f0160208091040260200160405190810160405280929190818152602001828054610947906122f1565b80156109945780601f1061096957610100808354040283529160200191610994565b820191906000526020600020905b81548152906001019060200180831161097757829003601f168201915b5050505050905060006109a56113e2565b905060008151036109ba5781925050506109fd565b6000825111156109ef5780826040516020016109d7929190612395565b604051602081830303815290604052925050506109fd565b6109f8846113f9565b925050505b919050565b670de0b6b3a76400003414610a4c576040517f08c379a0000000000000000000000000000000000000000000000000000000008152600401610a4390612405565b60405180910390fd5b610a5882600854611462565b610a6460085482611480565b60086000815480929190610a7790612454565b91905055505050565b6000600560008473ffffffffffffffffffffffffffffffffffffffff1673ffffffffffffffffffffffffffffffffffffffff16815260200190815260200160002060008373ffffffffffffffffffffffffffffffffffffffff1673ffffffffffffffffffffffffffffffffffffffff16815260200190815260200160002060009054906101000a900460ff16905092915050565b610b1c610f75565b600073ffffffffffffffffffffffffffffffffffffffff168173ffffffffffffffffffffffffffffffffffffffff1603610b8e5760006040517f1e4fbdf7000000000000000000000000000000000000000000000000000000008152600401610b859190611e30565b60405180910390fd5b610b9781610ffc565b50565b60007f80ac58cd000000000000000000000000000000000000000000000000000000007bffffffffffffffffffffffffffffffffffffffffffffffffffffffff1916827bffffffffffffffffffffffffffffffffffffffffffffffffffffffff19161480610c6557507f5b5e139f000000000000000000000000000000000000000000000000000000007bffffffffffffffffffffffffffffffffffffffffffffffffffffffff1916827bffffffffffffffffffffffffffffffffffffffffffffffffffffffff1916145b80610c755750610c74826114dc565b5b9050919050565b600080610c8883611546565b9050600073ffffffffffffffffffffffffffffffffffffffff168173ffffffffffffffffffffffffffffffffffffffff1603610cfb57826040517f7e273289000000000000000000000000000000000000000000000000000000008152600401610cf29190611f46565b60405180910390fd5b80915050919050565b60006004600083815260200190815260200160002060009054906101000a900473ffffffffffffffffffffffffffffffffffffffff169050919050565b600033905090565b610d568383836001611583565b505050565b600080610d6784611546565b9050600073ffffffffffffffffffffffffffffffffffffffff168373ffffffffffffffffffffffffffffffffffffffff1614610da957610da8818486611748565b5b600073ffffffffffffffffffffffffffffffffffffffff168173ffffffffffffffffffffffffffffffffffffffff1614610e3a57610deb600085600080611583565b6001600360008373ffffffffffffffffffffffffffffffffffffffff1673ffffffffffffffffffffffffffffffffffffffff168152602001908152602001600020600082825403925050819055505b600073ffffffffffffffffffffffffffffffffffffffff168573ffffffffffffffffffffffffffffffffffffffff1614610ebd576001600360008773ffffffffffffffffffffffffffffffffffffffff1673ffffffffffffffffffffffffffffffffffffffff168152602001908152602001600020600082825401925050819055505b846002600086815260200190815260200160002060006101000a81548173ffffffffffffffffffffffffffffffffffffffff021916908373ffffffffffffffffffffffffffffffffffffffff160217905550838573ffffffffffffffffffffffffffffffffffffffff168273ffffffffffffffffffffffffffffffffffffffff167fddf252ad1be2c89b69c2b068fc378daa952ba7f163c4a11628f55a4df523b3ef60405160405180910390a4809150509392505050565b610f7d610d41565b73ffffffffffffffffffffffffffffffffffffffff16610f9b6107f8565b73ffffffffffffffffffffffffffffffffffffffff1614610ffa57610fbe610d41565b6040517f118cdaa7000000000000000000000000000000000000000000000000000000008152600401610ff19190611e30565b60405180910390fd5b565b6000600760009054906101000a900473ffffffffffffffffffffffffffffffffffffffff16905081600760006101000a81548173ffffffffffffffffffffffffffffffffffffffff021916908373ffffffffffffffffffffffffffffffffffffffff1602179055508173ffffffffffffffffffffffffffffffffffffffff168173ffffffffffffffffffffffffffffffffffffffff167f8be0079c531659141344cd1fd0a4f28419497f9722a3daafe3b4186f6b6457e060405160405180910390a35050565b600073ffffffffffffffffffffffffffffffffffffffff168273ffffffffffffffffffffffffffffffffffffffff160361113357816040517f5b08ba1800000000000000000000000000000000000000000000000000000000815260040161112a9190611e30565b60405180910390fd5b80600560008573ffffffffffffffffffffffffffffffffffffffff1673ffffffffffffffffffffffffffffffffffffffff16815260200190815260200160002060008473ffffffffffffffffffffffffffffffffffffffff1673ffffffffffffffffffffffffffffffffffffffff16815260200190815260200160002060006101000a81548160ff0219169083151502179055508173ffffffffffffffffffffffffffffffffffffffff168373ffffffffffffffffffffffffffffffffffffffff167f17307eab39ab6107e8899845ad3d59bd9653f200f220920489ca2b5937696c31836040516112249190611cbf565b60405180910390a3505050565b60008373ffffffffffffffffffffffffffffffffffffffff163b11156113db578273ffffffffffffffffffffffffffffffffffffffff1663150b7a02868685856040518563ffffffff1660e01b815260040161129094939291906124f1565b6020604051808303816000875af19250505080156112cc57506040513d601f19601f820116820180604052508101906112c99190612552565b60015b611350573d80600081146112fc576040519150601f19603f3d011682016040523d82523d6000602084013e611301565b606091505b50600081510361134857836040517f64a0ae9200000000000000000000000000000000000000000000000000000000815260040161133f9190611e30565b60405180910390fd5b805181602001fd5b63150b7a0260e01b7bffffffffffffffffffffffffffffffffffffffffffffffffffffffff1916817bffffffffffffffffffffffffffffffffffffffffffffffffffffffff1916146113d957836040517f64a0ae920000000000000000000000000000000000000000000000000000000081526004016113d09190611e30565b60405180910390fd5b505b5050505050565b606060405180602001604052806000815250905090565b606061140482610c7c565b50600061140f6113e2565b9050600081511161142f576040518060200160405280600081525061145a565b806114398461180c565b60405160200161144a929190612395565b6040516020818303038152906040525b915050919050565b61147c8282604051806020016040528060008152506118da565b5050565b806006600084815260200190815260200160002090816114a0919061272b565b507ff8e1a15aba9398e019f0b49df1a4fde98ee17ae345cb5f6b5e2c27f5033e8ce7826040516114d09190611f46565b60405180910390a15050565b60007f01ffc9a7000000000000000000000000000000000000000000000000000000007bffffffffffffffffffffffffffffffffffffffffffffffffffffffff1916827bffffffffffffffffffffffffffffffffffffffffffffffffffffffff1916149050919050565b60006002600083815260200190815260200160002060009054906101000a900473ffffffffffffffffffffffffffffffffffffffff169050919050565b80806115bc5750600073ffffffffffffffffffffffffffffffffffffffff168273ffffffffffffffffffffffffffffffffffffffff1614155b156116f05760006115cc84610c7c565b9050600073ffffffffffffffffffffffffffffffffffffffff168373ffffffffffffffffffffffffffffffffffffffff161415801561163757508273ffffffffffffffffffffffffffffffffffffffff168173ffffffffffffffffffffffffffffffffffffffff1614155b801561164a57506116488184610a80565b155b1561168c57826040517fa9fbf51f0000000000000000000000000000000000000000000000000000000081526004016116839190611e30565b60405180910390fd5b81156116ee57838573ffffffffffffffffffffffffffffffffffffffff168273ffffffffffffffffffffffffffffffffffffffff167f8c5be1e5ebec7d5bd14f71427d1e84f3dd0314c0f7b2291e5b200ac8c7c3b92560405160405180910390a45b505b836004600085815260200190815260200160002060006101000a81548173ffffffffffffffffffffffffffffffffffffffff021916908373ffffffffffffffffffffffffffffffffffffffff16021790555050505050565b6117538383836118fe565b61180757600073ffffffffffffffffffffffffffffffffffffffff168373ffffffffffffffffffffffffffffffffffffffff16036117c857806040517f7e2732890000000000000000000000000000000000000000000000000000000081526004016117bf9190611f46565b60405180910390fd5b81816040517f177e802f0000000000000000000000000000000000000000000000000000000081526004016117fe9291906127fd565b60405180910390fd5b505050565b60606000600161181b846119bf565b01905060008167ffffffffffffffff81111561183a57611839611fd7565b5b6040519080825280601f01601f19166020018201604052801561186c5781602001600182028036833780820191505090505b509050600082602001820190505b6001156118cf578080600190039150507f3031323334353637383961626364656600000000000000000000000000000000600a86061a8153600a85816118c3576118c2612826565b5b0494506000850361187a575b819350505050919050565b6118e48383611b12565b6118f96118ef610d41565b6000858585611231565b505050565b60008073ffffffffffffffffffffffffffffffffffffffff168373ffffffffffffffffffffffffffffffffffffffff16141580156119b657508273ffffffffffffffffffffffffffffffffffffffff168473ffffffffffffffffffffffffffffffffffffffff16148061197757506119768484610a80565b5b806119b557508273ffffffffffffffffffffffffffffffffffffffff1661199d83610d04565b73ffffffffffffffffffffffffffffffffffffffff16145b5b90509392505050565b600080600090507a184f03e93ff9f4daa797ed6e38ed64bf6a1f0100000000000000008310611a1d577a184f03e93ff9f4daa797ed6e38ed64bf6a1f0100000000000000008381611a1357611a12612826565b5b0492506040810190505b6d04ee2d6d415b85acef81000000008310611a5a576d04ee2d6d415b85acef81000000008381611a5057611a4f612826565b5b0492506020810190505b662386f26fc100008310611a8957662386f26fc100008381611a7f57611a7e612826565b5b0492506010810190505b6305f5e1008310611ab2576305f5e1008381611aa857611aa7612826565b5b0492506008810190505b6127108310611ad7576127108381611acd57611acc612826565b5b0492506004810190505b60648310611afa5760648381611af057611aef612826565b5b0492506002810190505b600a8310611b09576001810190505b80915050919050565b600073ffffffffffffffffffffffffffffffffffffffff168273ffffffffffffffffffffffffffffffffffffffff1603611b845760006040517f64a0ae92000000000000000000000000000000000000000000000000000000008152600401611b7b9190611e30565b60405180910390fd5b6000611b9283836000610d5b565b9050600073ffffffffffffffffffffffffffffffffffffffff168173ffffffffffffffffffffffffffffffffffffffff1614611c065760006040517f73c6ac6e000000000000000000000000000000000000000000000000000000008152600401611bfd9190611e30565b60405180910390fd5b505050565b6000604051905090565b600080fd5b600080fd5b60007fffffffff0000000000000000000000000000000000000000000000000000000082169050919050565b611c5481611c1f565b8114611c5f57600080fd5b50565b600081359050611c7181611c4b565b92915050565b600060208284031215611c8d57611c8c611c15565b5b6000611c9b84828501611c62565b91505092915050565b60008115159050919050565b611cb981611ca4565b82525050565b6000602082019050611cd46000830184611cb0565b92915050565b600081519050919050565b600082825260208201905092915050565b60005b83811015611d14578082015181840152602081019050611cf9565b60008484015250505050565b6000601f19601f8301169050919050565b6000611d3c82611cda565b611d468185611ce5565b9350611d56818560208601611cf6565b611d5f81611d20565b840191505092915050565b60006020820190508181036000830152611d848184611d31565b905092915050565b6000819050919050565b611d9f81611d8c565b8114611daa57600080fd5b50565b600081359050611dbc81611d96565b92915050565b600060208284031215611dd857611dd7611c15565b5b6000611de684828501611dad565b91505092915050565b600073ffffffffffffffffffffffffffffffffffffffff82169050919050565b6000611e1a82611def565b9050919050565b611e2a81611e0f565b82525050565b6000602082019050611e456000830184611e21565b92915050565b611e5481611e0f565b8114611e5f57600080fd5b50565b600081359050611e7181611e4b565b92915050565b60008060408385031215611e8e57611e8d611c15565b5b6000611e9c85828601611e62565b9250506020611ead85828601611dad565b9150509250929050565b600080600060608486031215611ed057611ecf611c15565b5b6000611ede86828701611e62565b9350506020611eef86828701611e62565b9250506040611f0086828701611dad565b9150509250925092565b600060208284031215611f2057611f1f611c15565b5b6000611f2e84828501611e62565b91505092915050565b611f4081611d8c565b82525050565b6000602082019050611f5b6000830184611f37565b92915050565b611f6a81611ca4565b8114611f7557600080fd5b50565b600081359050611f8781611f61565b92915050565b60008060408385031215611fa457611fa3611c15565b5b6000611fb285828601611e62565b9250506020611fc385828601611f78565b9150509250929050565b600080fd5b600080fd5b7f4e487b7100000000000000000000000000000000000000000000000000000000600052604160045260246000fd5b61200f82611d20565b810181811067ffffffffffffffff8211171561202e5761202d611fd7565b5b80604052505050565b6000612041611c0b565b905061204d8282612006565b919050565b600067ffffffffffffffff82111561206d5761206c611fd7565b5b61207682611d20565b9050602081019050919050565b82818337600083830152505050565b60006120a56120a084612052565b612037565b9050828152602081018484840111156120c1576120c0611fd2565b5b6120cc848285612083565b509392505050565b600082601f8301126120e9576120e8611fcd565b5b81356120f9848260208601612092565b91505092915050565b6000806000806080858703121561211c5761211b611c15565b5b600061212a87828801611e62565b945050602061213b87828801611e62565b935050604061214c87828801611dad565b925050606085013567ffffffffffffffff81111561216d5761216c611c1a565b5b612179878288016120d4565b91505092959194509250565b600067ffffffffffffffff8211156121a05761219f611fd7565b5b6121a982611d20565b9050602081019050919050565b60006121c96121c484612185565b612037565b9050828152602081018484840111156121e5576121e4611fd2565b5b6121f0848285612083565b509392505050565b600082601f83011261220d5761220c611fcd565b5b813561221d8482602086016121b6565b91505092915050565b6000806040838503121561223d5761223c611c15565b5b600061224b85828601611e62565b925050602083013567ffffffffffffffff81111561226c5761226b611c1a565b5b612278858286016121f8565b9150509250929050565b6000806040838503121561229957612298611c15565b5b60006122a785828601611e62565b92505060206122b885828601611e62565b9150509250929050565b7f4e487b7100000000000000000000000000000000000000000000000000000000600052602260045260246000fd5b6000600282049050600182168061230957607f821691505b60208210810361231c5761231b6122c2565b5b50919050565b60006060820190506123376000830186611e21565b6123446020830185611f37565b6123516040830184611e21565b949350505050565b600081905092915050565b600061236f82611cda565b6123798185612359565b9350612389818560208601611cf6565b80840191505092915050565b60006123a18285612364565b91506123ad8284612364565b91508190509392505050565b7f4d696e74696e672072657175697265732065786163746c7920312043485a0000600082015250565b60006123ef601e83611ce5565b91506123fa826123b9565b602082019050919050565b6000602082019050818103600083015261241e816123e2565b9050919050565b7f4e487b7100000000000000000000000000000000000000000000000000000000600052601160045260246000fd5b600061245f82611d8c565b91507fffffffffffffffffffffffffffffffffffffffffffffffffffffffffffffffff820361249157612490612425565b5b600182019050919050565b600081519050919050565b600082825260208201905092915050565b60006124c38261249c565b6124cd81856124a7565b93506124dd818560208601611cf6565b6124e681611d20565b840191505092915050565b60006080820190506125066000830187611e21565b6125136020830186611e21565b6125206040830185611f37565b818103606083015261253281846124b8565b905095945050505050565b60008151905061254c81611c4b565b92915050565b60006020828403121561256857612567611c15565b5b60006125768482850161253d565b91505092915050565b60008190508160005260206000209050919050565b60006020601f8301049050919050565b600082821b905092915050565b6000600883026125e17fffffffffffffffffffffffffffffffffffffffffffffffffffffffffffffffff826125a4565b6125eb86836125a4565b95508019841693508086168417925050509392505050565b6000819050919050565b600061262861262361261e84611d8c565b612603565b611d8c565b9050919050565b6000819050919050565b6126428361260d565b61265661264e8261262f565b8484546125b1565b825550505050565b600090565b61266b61265e565b612676818484612639565b505050565b5b8181101561269a5761268f600082612663565b60018101905061267c565b5050565b601f8211156126df576126b08161257f565b6126b984612594565b810160208510156126c8578190505b6126dc6126d485612594565b83018261267b565b50505b505050565b600082821c905092915050565b6000612702600019846008026126e4565b1980831691505092915050565b600061271b83836126f1565b9150826002028217905092915050565b61273482611cda565b67ffffffffffffffff81111561274d5761274c611fd7565b5b61275782546122f1565b61276282828561269e565b600060209050601f8311600181146127955760008415612783578287015190505b61278d858261270f565b8655506127f5565b601f1984166127a38661257f565b60005b828110156127cb578489015182556001820191506020850194506020810190506127a6565b868310156127e857848901516127e4601f8916826126f1565b8355505b6001600288020188555050505b505050505050565b60006040820190506128126000830185611e21565b61281f6020830184611f37565b9392505050565b7f4e487b7100000000000000000000000000000000000000000000000000000000600052601260045260246000fdfea26469706673582212205290417dd6fb9ff05152018584e5c68daa0040a27163333eba26e09541a87ecf64736f6c63430008180033",
  "linkReferences": {},
  "deployedLinkReferences": {}
}